:100000000C940A010C9400000C9400000C94000065
:100010000C9400000C9400000C9400000C94000060
:100020000C9400000C9400000C9400000C94000050
:100030000C9400000C9400000C944E070C940000EB
:100040000C9400000C9400000C9400000C94000030
:100050000C9400000C9400000C9400000C94000020
:100060000C9400000C94A0020C9400000C9400006E
:100070000C940B030C9400000C9400000C940000F2
:100080000C9400000C9400000C9400000C940000F0
:100090000C9400000C9400000C9400000C940000E0
:1000A0000C9400000C9400000C9400000C940000D0
:1000B0000C9400000C9400000C9400000C940000C0
:1000C0000C9400000C9400000C9400000C940000B0
:1000D0000C9400000C9400000C9400000C940000A0
:1000E0000C9400000C9400000C944C040C94000040
:1000F0000C9400000C94B7040C9400000C940000C5
:100100000C9400000C9400000C9400000C9400006F
:100110000C9400000C9400000C9400000C9400005F
:100120000C9400000C9400000C9400000C9400004F
:100130000C9400000C9400000C9400000C9400003F
:100140000C9400000C9400000C9400000C9400002F
:100150000C9400000C9400000C9400000C9400001F
:100160000C9476030C9400000C9400000C94E103B2
:100170000C9400000C9400000C9400000C940000FF
:100180000C9400000C9400000C9400000C940000EF
:100190000C9400000C9400000C9400000C940000DF
:1001A0000C9400000C9400000C9400000C940000CF
:1001B0000C9400000C9400000C9400000C940000BF
:1001C0000C9400000C9400000C9400000C940000AF
:1001D0000C9400000C9400000C9400000C94220578
:1001E0000C9400000C9400000002040600020406B7
:1001F00001030507010305070000000001010101DB
:100200000800FA29E8010800022AF00108000A2A79
:10021000F8010000F894EE27F091CC01F860F0931B
:10022000CC01F8EDF4BFE093A20080E090E2A0E002
:10023000B0E2ED930197E9F7E0E0F2E08591959166
:10024000009761F0A591B59105901590BF01F0015F
:1002500005900D920197E1F7FB01F0CF8BBFE0E035
:10026000E0B9E1B9E2B9E3B9E4B9E5B9E6B9E7B9AA
:10027000E8B9E9B9EAB9EBB9ECB9EDB9EEB9EFB95A
:100280002E2E3E2E5E2EEFEFEDBFEFE3EEBFC0E071
:10029000D8E20C944B01F894E091A200E873E3607B
:1002A0001E2FE8EDE4BF1093A200E0E0E093A10070
:1002B00017D021D451D024D12AD194D1FED168D2E3
:1002C000D2D23CD3A6D38BD57894EFEFE09304063B
:1002D000E093240663D52CD64ED43FD5FCCFFFCF78
:1002E0001A930A930FB7F894E0E0E0935200E0917C
:1002F0005000E860E0935000E0915000EF7EE09302
:10030000500014ECE8EDE4BF10935500E09150006C
:10031000E061E0935000E0915100E071E1F3E09181
:100320004100E0781E2FE8EDE4BF10934100E0911A
:100330004000E87FE4601E2FE8EDE4BF109340002A
:10034000E0915000E87FE0935000E091B400EC7F32
:10035000E093B4000FBF9FC5E0E0E0930406EFEF29
:10036000E0930006E0E0E0931006E0931106E093CE
:100370001206E0931306E0931406E0931506E0934B
:100380001606E0931706E0910906E07FE093090660
:10039000E0E0E0930A06E0930B06E0932406EFEF1B
:1003A000E0932006E0E0E0933006E0933106E0932E
:1003B0003206E0933306E0933406E0933506E0938B
:1003C0003606E0933706E0912906E07FE0932906A0
:1003D000E0E0E0932A06E0932B06E8E8E093440689
:1003E000E0934006E0E0E0935006E0935106E0938E
:1003F0005206E0935306E0935406E0935506E093CB
:100400005606E0935706E0914906E07FE0934906DF
:10041000E0E0E0934A06E0934B06E8E8E0936406E8
:10042000E0936006E0E0E0937006E0937106E093ED
:100430007206E0937306E0937406E0937506E0930A
:100440007606E0937706E0916906E07FE09369061F
:10045000E0E0E0936A06E0936B06E8E8E093840648
:10046000E0938006E0E0E0939006E0939106E0934D
:100470009206E0939306E0939406E0939506E0934A
:100480009606E0939706E0918906E07FE09389065F
:10049000E0E0E0938A06E0938B06E8E0E093A406B0
:1004A000E093A006E0E0E093B006E093B106E093AD
:1004B000B206E093B306E093B406E093B506E0938A
:1004C000B606E093B706E091A906E07FE093A9069F
:1004D000E0E0E093AA06E093AB06E093E407E09344
:1004E000E007E093F007E093F107E091E907E07F90
:1004F000E093E907E0E0E093EA07E093EB07089573
:10050000E0E1E093B200E2E3E093B3000895E8E0B5
:10051000E0934506E3E0E093A508E091A308E07CC2
:10052000E062E093A308EDEFE093A608ECEDE09322
:10053000A708E091A408E07EE861E093A40808958C
:100540000E94F6081091A1080091A008E12FEC711B
:10055000E1F4E0914028EF5FE0934028E150F0E0C3
:10056000E050F84D0083A0914028A03419F4E0E059
:10057000E0934028A0914228AF5FA0934228A03486
:1005800021F4E0E0E0934228009A81C21A93E091BE
:100590004228E03019F4EFEFFFEFC8C4E0914128A2
:1005A000EF5FE0934128E150F0E0E050F84D10811A
:1005B000A0914128A03419F4E0E0E0934128F89498
:1005C000E0914228E150E09342287894E12FF0E056
:1005D000ADC41A931A2FE091A108E072E1F31093D1
:1005E000A008A4C4E0E8E0934506E3E0E093B50882
:1005F000E091B308E07CE062E093B308EDEFE093B4
:10060000B608ECEDE093B708E091B408E07EE8614D
:10061000E093B40808950E94F6081091B108009183
:10062000B008E12FEC71E1F4E0918328EF5FE093F3
:100630008328E150F0E0ED5BF74D0083A091832823
:10064000A03419F4E0E0E0938328A0918528AF5FFF
:10065000A0938528A03421F4E0E0E0938528019A56
:1006600016C21A93E0918528E03019F4EFEFFFEFFE
:100670005DC4E0918428EF5FE0938428E150F0E0CE
:10068000ED5BF74D1081A0918428A03419F4E0E0CF
:10069000E0938428F894E0918528E150E093852840
:1006A0007894E12FF0E042C41A931A2FE091B10838
:1006B000E072E1F31093B00839C4E8E0E093650616
:1006C000E3E0E093A509E091A309E07CE062E09318
:1006D000A309EDEFE093A609ECEDE093A709E09103
:1006E000A409E07EE861E093A40908950E94F60859
:1006F0001091A1090091A009E12FEC71E1F4E091C2
:10070000C628EF5FE093C628E150F0E0EA57F74DC6
:100710000083A091C628A03419F4E0E0E093C62835
:10072000A091C828AF5FA093C828A03421F4E0E0CE
:10073000E093C828029AABC11A93E091C828E03030
:1007400019F4EFEFFFEFF2C3E091C728EF5FE093FA
:10075000C728E150F0E0EA57F74D1081A091C72873
:10076000A03419F4E0E0E093C728F894E091C82899
:10077000E150E093C8287894E12FF0E0D7C31A93B2
:100780001A2FE091A109E072E1F31093A009CEC302
:10079000E0E8E0936506E3E0E093B509E091B30992
:1007A000E07CE062E093B309EDEFE093B609ECED95
:1007B000E093B709E091B409E07EE861E093B40901
:1007C00008950E94F6081091B1090091B009E12F37
:1007D000EC71E1F4E0910929EF5FE0930929E15020
:1007E000F0E0E753F74D0083A0910929A03419F4F4
:1007F000E0E0E0930929A0910B29AF5FA0930B29BA
:10080000A03421F4E0E0E0930B29039A40C11A934D
:10081000E0910B29E03019F4EFEFFFEF87C3E0918F
:100820000A29EF5FE0930A29E150F0E0E753F74D22
:100830001081A0910A29A03419F4E0E0E0930A297C
:10084000F894E0910B29E150E0930B297894E12F83
:10085000F0E06CC31A931A2FE091B109E072E1F352
:100860001093B00963C3E8E0E0938506E3E0E0930A
:10087000A50AE091A30AE07CE062E093A30AEDEF11
:10088000E093A60AECEDE093A70AE091A40AE07ECB
:10089000E861E093A40A08950E94F6081091A10A65
:1008A0000091A00AE12FEC71E1F4E0914C29EF5F97
:1008B000E0934C29E150F0E0E45FF64D0083A09115
:1008C0004C29A03419F4E0E0E0934C29A0914E2982
:1008D000AF5FA0934E29A03421F4E0E0E0934E29CD
:1008E000049AD5C01A93E0914E29E03019F4EFEF45
:1008F000FFEF1CC3E0914D29EF5FE0934D29E150DC
:10090000F0E0E45FF64D1081A0914D29A03419F478
:10091000E0E0E0934D29F894E0914E29E150E09316
:100920004E297894E12FF0E001C31A931A2FE09139
:10093000A10AE072E1F31093A00AF8C2E0E8E093A4
:100940008506E3E0E093B50AE091B30AE07CE0625B
:10095000E093B30AEDEFE093B60AECEDE093B70A4B
:10096000E091B40AE07EE861E093B40A08950E9441
:10097000F6081091B10A0091B00AE12FEC71E1F490
:10098000E0918F29EF5FE0938F29E150F0E0E15B88
:10099000F64D0083A0918F29A03419F4E0E0E09394
:1009A0008F29A0919129AF5FA0939129A03421F4C0
:1009B000E0E0E0939129059A6AC01A93E0919129A9
:1009C000E03019F4EFEFFFEFB1C2E0919029EF5F53
:1009D000E0939029E150F0E0E15BF64D1081A091A9
:1009E0009029A03419F4E0E0E0939029F894E09184
:1009F0009129E150E09391297894E12FF0E096C29B
:100A00001A931A2FE091B10AE072E1F31093B00A41
:100A10008DC2E8E0E093A506E3E0E093A50BE0914A
:100A2000A30BE07CE062E093A30BEDEFE093A60B59
:100A3000ECEDE093A70BE091A40BE07EE861E0937E
:100A4000A40B08950E94F6081091A10B0091A00B31
:100A5000E12FEC71E1F4E091D229EF5FE093D2292C
:100A6000E150F0E0EE56F64D0083A091D229A0347B
:100A700019F4E0E0E093D229A091D429AF5FA093CC
:100A8000D429A03421F4E0E0E093D429069A099116
:100A90001991E991EFBFF991E991A99118951A93EC
:100AA000E091D429E03019F4EFEFFFEF3FC2E0917D
:100AB000D329EF5FE093D329E150F0E0EE56F64DF5
:100AC0001081A091D329A03419F4E0E0E093D32958
:100AD000F894E091D429E150E093D4297894E12F5F
:100AE000F0E024C21A931A2FE091A10BE072E1F317
:100AF0001093A00B1BC2E9EEF2E0E093DC29F09327
:100B0000DD29AEEDB9E2E4E5F3E0ED93FC93A0EE70
:100B1000B9E2EFEBF3E0ED93FC93A2EEB9E2EAE287
:100B2000F4E0ED93FC93A4EEB9E2E5E9F4E0ED9393
:100B3000FC93A6EEB9E2E0E0F5E0ED93FC93A8EEBD
:100B4000B9E2E2E7F5E0ED93FC9308950E94FE0818
:100B5000E12FACEDB9E2F0E0EE0FFF1FAE0FBF1FCB
:100B6000ED91FD91FF93EF93A02FEF91FF910995E8
:100B7000A12F64D0AFC0AC97E0E0E883E983EA83BB
:100B8000EB83EC83ED83EE830E944609DE011E9623
:100B9000E3D21E2F103009F446C000E00730B0F455
:100BA000E02FF0E0EB52F64DA081A03049F0EE8549
:100BB000EA1731F0AE85A03E11F4063009F004C00A
:100BC0000E940309E1E0EC930F5FE8CFE5E5EB87D6
:100BD000EEEFEC87ED87E12FF0E03396DE011B9618
:100BE000AE0FBF1FEDEFEC9330E0E12FF0E0349655
:100BF000A32FB0E0AE17BF07B4F400E0073088F4CD
:100C00000E940309EC91E03051F0E32FF0E0DE01A7
:100C10001B96AE0FBF1FEC91EA93A02F97DF0F5FDB
:100C2000EDCF3F5FE2CF0E944B09E09608951A9303
:100C30001A2F0E940A09A4E6A08378C11A931A2FDA
:100C40000E940F09A4E6A08371C10E94FE080E94C1
:100C50001409E081E03059F4103029F00E9419099C
:100C6000E093060604C00E941909E09305060E945D
:100C70001409A081A13059F4103029F00E941909FB
:100C8000E093260604C00E941909E093250622C0BD
:100C90000E94FE080E941409E081E03059F41030EF
:100CA00029F00E942209E093060604C00E9422094E
:100CB000E09305060E941409A081A13059F4103078
:100CC00029F00E942209E093260604C00E9422090E
:100CD000E093250619810881239608951A9310E060
:100CE0001830D0F50E940A09A081A43619F41A938D
:100CF000A1E0ABDF0E940A09A081A13078F0A12F0A
:100D0000B0E0A651B64DEC91E150EC930E940A0977
:100D1000E081E03019F41A93A0E097DF0E940F09F8
:100D2000A081A43619F41A93A1E0B2DF0E940F0942
:100D3000A081A13078F0A12FB0E0AE50B64DEC917B
:100D4000E150EC930E940F09E081E03019F41A930E
:100D5000A0E09EDF1F5FC4CFE9C00E944609E0917A
:100D600068061E2FE0710E2FE12FE0723E2FE091FA
:100D7000122AE01711F0003009F002C0A7E057DF97
:100D8000E091132AE31711F0303009F002C0A7E018
:100D900055DF0093122A3093132A12C21A9310E0DF
:100DA000183040F4A12F43DFA4E6B0E00E9486098A
:100DB0001F5FF6CF10E0183040F4A12F3FDFA4E60C
:100DC000B0E00E9486091F5FF6CFB0C01A930A9365
:100DD0008D01E0E0EC931996ECE0EC935CC01A9383
:100DE0000A931FB7F894A0E0B8E0F0DFE4E0E093E6
:100DF0000008E0E0E0930108E0930308E0930408B2
:100E0000E1E0E0930608E0E0E0930708E091900855
:100E1000EE7FE0939008E0919900EE7F0E2FE8EDD1
:100E2000E4BF00939900E0E0E0938008E09183083C
:100E3000E87EE0938308E0E0E0938208A4E8B8E06D
:100E40000A2EAC91E0918408E470EA2BA02DEC937B
:100E5000E0910C08E0930C08E0E0F0E0E09320085B
:100E6000F0932108EFE3FCE9E0932608F0932708CC
:100E7000E0E0F0E0E0932808F0932908E0932A08E6
:100E8000F0932B08E0932C08F0932D08E0932E08A4
:100E9000F0932F081FBF0991199108950A921A9291
:100EA000FA926A937A938A939A93AA93BA93EA935B
:100EB000FA93EFB7EA9312DFA091142AAF5FA093E1
:100EC000142AA43620F0E0E0E093142A0ED0E99131
:100ED000EFBFF991E991B991A9919991899179918E
:100EE0006991F9901990099018951A9310E01730AC
:100EF000E8F4E12FF0E0EF50F44DA081A130A0F034
:100F0000A12FB0E0AF50B44DEC91E150EC93E12F44
:100F1000F0E0EF50F44DE081E03031F4E12FF0E00B
:100F2000EB52F64DA0E0A0831F5FE1CF1991089529
:100F30000E944609E32DF0E0309719F406EC12E028
:100F400029C0E130A0E0FA0719F401E313E022C060
:100F5000E230A0E0FA0719F40CE913E01BC0E3301B
:100F6000A0E0FA0719F407E014E014C0E430A0E0B0
:100F7000FA0719F402E714E00DC0E530A0E0FA0723
:100F800019F40DED14E006C0E630A0E0FA0711F404
:100F90000FE415E0F80109959F01EFEFFFEFE2176D
:100FA000F30709F482C0EEEFF0E0E217F30761F413
:100FB000E32DF0E0E45EF54DA081AE3F29F40E9400
:100FC0002B09A081A03009F00AC00E943009A0E0DE
:100FD000A083E32DF0E0EB5EF54DA1E04BC0E32DE7
:100FE000F0E0EB5EF54DA081A13009F044C0EDEFDB
:100FF000F0E0E217F307E9F4A32D19DEA32DB0E02A
:10100000AB52B64D0E943509E55DF54DE081EC939C
:10101000E32DF0E0EF50F44DA4E1A0830E943509E8
:10102000E65DF54DFA93EA930E943009A08143D022
:1010300018C00E943509E65DF54DDF010E943009B8
:10104000E081F0E0EA0FFB1F2083A32DB0E0A65162
:10105000B44DEC91EF5FEC930E943009A081A03475
:1010600051F4E32DF0E0EB5EF54DA0E0A0830E948B
:101070003009A0E0A083E32DF0E0E45EF54DA0810F
:10108000A53529F4EEEFF0E0E217F30709F004C00C
:101090000E942B09A1E003C00E942B09A0E0A083BD
:1010A000E32DF0E0E45EF54D20833394E6E0E315B4
:1010B00008F4332485C00E9446091A2F2C813D81F3
:1010C000133018F40E944B098FC0113218F00E949F
:1010D0004B098AC0E22DF0E03196DF01E8E2F0E052
:1010E0000E947809DF01E52DF0E0EA17FB0719F40B
:1010F0000E944B0979C00E943C09E750F44D0F0152
:10110000D901EC91D001EC930E943C09E650F44DDA
:10111000DF01F901E181EC930E943C09E850F44DB4
:10112000DF01E12FE250EC930E943C09E550F44DC1
:10113000FA93EA93F9013296FA93EA93E12FF0E0F9
:101140003297DF010E94E4082394E8E2E21509F4F3
:1011500022240E944B0948C00E9446099D01251483
:1011600011F4E0E02DC00E944109E750F44DE08108
:10117000D901EC930E944109E650F44DE081D90178
:101180001196EC930E944109E850F44D1081113200
:1011900010F0E0E015C0F9013296FA93EA930E944C
:1011A0004109E550F44DFA93EA93A12FBB270E9421
:1011B000E4085394E8E2E51509F45524E12FEE5FC5
:1011C0000E944B0924960895BA93AA939981888125
:1011D000009641F0BD81AC81FB81EA8161916D9304
:1011E0000197E1F7FD81EC8126960895AA93EA9391
:1011F000FA93EFB7EA931A930A9308951A930A930E
:101200001A2F0A810895E02FF0E0DE011496AE0F48
:10121000BF1F0895E12FF0E0E651F64D0895E12F4C
:10122000F0E0EE50F64D0895E02FF0E0E65FF54D6A
:101230000895E02FF0E0E650F64DE081A1E00E9435
:1012400054090895E02FF0E0EE5FF54DE081A1E054
:101250000E9454090895E32DF0E0ED5DF54D0895E9
:10126000E32DF0E0E651F44D0895E32DF0E00E9407
:1012700060090E945C090895E22DA1E2EA9FF00155
:101280000895E52DA1E2EA9FF00108953A932A938B
:101290001A930A9308953B812A8119810881089540
:1012A000F195E195F0400895EE230E2EEA2F19F006
:1012B000EE0F0A94E9F70895EE0FFF1FEE0FFF1FE0
:1012C000EE0FFF1FEE0FFF1F08950024112490E181
:1012D000AA0FBB1F001C111C0E1A1F0A18F40E0EB9
:1012E0001F1E01C0A1609A9599F7FD01D0010895D4
:1012F000E894B7FF04C0B195A195B0406894F7FD9C
:10130000CFDFE3DFFD010EF4CBDF0895109639F057
:10131000A89580E49FE10197F1F71197C9F7089527
:00000001FF
